:0200000460009A
:10000000464346420004015600000000010303007D
:1000100000000000000000000000000000000000E0
:1000200000000000000000000000000000000000D0
:1000300000000000000000000000000000000000C0
:100040001000000001040700000000000000000094
:100050000000800000000000000000000000000020
:100060000000000000000000000000000000000090
:100070000000000000000000000000000000000080
:10008000EB04180A063204260000000000000000FD
:10009000050404240000000000000000000000002F
:1000A0000000000000000000000000000000000050
:1000B0000604000000000000000000000000000036
:1000C0000000000000000000000000000000000030
:1000D00020041808000000000000000000000000DC
:1000E0000000000000000000000000000000000010
:1000F0000000000000000000000000000000000000
:10010000D8041808000000000000000000000000F3
:100110000204180804200000000000000000000095
:1001200000000000000000000000000000000000CF
:10013000600400000000000000000000000000005B
:1001400000000000000000000000000000000000AF
:10015000000000000000000000000000000000009F
:10016000000000000000000000000000000000008F
:10017000000000000000000000000000000000007F
:10018000000000000000000000000000000000006F
:10019000000000000000000000000000000000005F
:1001A000000000000000000000000000000000004F
:1001B000000000000000000000000000000000003F
:1001C000000100000010000001000000000000001D
:1001D000000001000000000000000000000000001E
:1001E000000000000000000000000000000000000F
:1001F00000000000000000000000000000000000FF
:10100000D1002041ED24006000000000301000609D
:1010100020100060001000600000000000000000D0
:10102000000000600000800000000000FFFFFFFFE4
:10103000D2041041CC038C04400FC068FFFFFFFFB7
:10104000400FC06CFFFFFFFF400FC070FFFFFFFFAE
:10105000400FC074FFFFFFFF400FC078FFFFFFFF8E
:10106000400FC07CFFFFFFFF400FC080FFFFFFFF6E
:10107000400D803000002001400D8100101D101B2C
:10108000400FC01400010D40401F801400000000FC
:10109000401F801800000000401F801C000000005E
:1010A000401F802000000000401F8024000000003E
:1010B000401F802800000000401F802C000000001E
:1010C000401F803000000000401F803400000000FE
:1010D000401F803800000000401F803C00000000DE
:1010E000401F804000000000401F804400000000BE
:1010F000401F804800000000401F804C000000009E
:10110000401F805000000000401F8054000000007D
:10111000401F805800000000401F805C000000005D
:10112000401F806000000000401F8064000000003D
:10113000401F806800000000401F806C000000001D
:10114000401F807000000000401F807400000000FD
:10115000401F807800000000401F807C00000000DD
:10116000401F808000000000401F808400000000BD
:10117000401F808800000000401F808C000000009D
:10118000401F809000000000401F8094000000007D
:10119000401F809800000000401F809C000000005D
:1011A000401F80A000000000401F80A4000000003D
:1011B000401F80A800000000401F80AC000000001D
:1011C000401F80B000000010401F8204000110F991
:1011D000401F8208000110F9401F820C000110F925
:1011E000401F8210000110F9401F8214000110F905
:1011F000401F8218000110F9401F821C000110F9E5
:10120000401F8220000110F9401F8224000110F9C4
:10121000401F8228000110F9401F822C000110F9A4
:10122000401F8230000110F9401F8234000110F984
:10123000401F8238000110F9401F823C000110F964
:10124000401F8240000110F9401F8244000110F944
:10125000401F8248000110F9401F824C000110F924
:10126000401F8250000110F9401F8254000110F904
:10127000401F8258000110F9401F825C000110F9E4
:10128000401F8260000110F9401F8264000110F9C4
:10129000401F8268000110F9401F826C000110F9A4
:1012A000401F8270000110F9401F8274000110F984
:1012B000401F8278000110F9401F827C000110F964
:1012C000401F8280000110F9401F8284000110F944
:1012D000401F8288000110F9401F828C000110F924
:1012E000401F8290000110F9401F8294000110F904
:1012F000401F8298000110F9401F829C000110F9E4
:10130000401F82A0000110F9402F000010000004CF
:10131000402F000800000081402F000C00000081D9
:10132000402F00108000001B402F00148200001B83
:10133000402F00188400001B402F001C8600001B5B
:10134000402F002090000021402F0024A000001911
:10135000402F0028A8000017402F002CA900001BD8
:10136000402F003000000021402F0004000079A829
:10137000402F004000000F31402F0044006529221B
:10138000402F004800010920402F004C50210A083E
:10139000402F008000000021402F008400888888B2
:1013A000402F009400000002402F00980000000031
:1013B000402F009080000000402F009CA55A000F95
:1013C000CF000C1C402F003C00000001CC00140496
:1013D000402F009080000000402F009CA55A000C78
:1013E000CF000C1C402F003C00000001CC00140476
:1013F000402F009080000000402F009CA55A000C58
:10140000CF000C1C402F003C00000001CC001C044D
:10141000402F00A000000033402F0090800000000B
:10142000402F009CA55A000ACF000C1C402F003C06
:1014300000000001CC000C04402F004C50210A0990
:10200000F8310020ED24006049250060B52600600D
:1020100000000000000000000000000000000000C0
:102020000000000000000000000000004D250060DE
:1020300000000000000000004F25006025AB00609C
:102040005525006057250060592500605B2500601C
:102050005D2500605F2500606125006063250060EC
:102060006525006067250060692500606B250060BC
:102070006D2500606F25006071250060732500608C
:102080007525006077250060792500607B2500605C
:1020900031AB0060ADAB006029AC0060832500600F
:1020A00085250060A5AC0060892500608B25006057
:1020B0008D2500608F2500609125006093250060CC
:1020C0009525006097250060992500609B2500609C
:1020D0009D2500609F250060A1250060A32500606C
:1020E000A5250060A7250060A9250060AB2500603C
:1020F000AD250060AF250060B1250060B32500600C
:10210000B5250060B7250060B9250060BB250060DB
:10211000BD250060BF250060C1250060C3250060AB
:10212000C5250060C7250060C9250060CB2500607B
:10213000CD250060CF250060D1250060D32500604B
:10214000D5250060D7250060D9250060DB2500601B
:10215000DD250060DF250060E1250060E3250060EB
:10216000E5250060E7250060E9250060EB250060BB
:10217000ED250060EF250060F1250060F32500608B
:10218000416A0060516A0060616A0060716A0060C3
:10219000816A0060916A0060A16A0060B16A0060B3
:1021A000C16A0060D16A0060092600600B260060E9
:1021B0000D2600600F2600601126006013260060C7
:1021C0001526006017260060192600601B26006097
:1021D0001D2600601F260060212600602326006067
:1021E0002526006027260060292600602B26006037
:1021F0002D2600602F260060615D006033260060A0
:102200003526006037260060392600603B260060D6
:102210003D2600603F2600604126006043260060A6
:102220004526006047260060492600604B26006076
:102230004D2600604F260060512600605326006046
:102240005526006057260060592600605B26006016
:102250005D2600605F2600606126006063260060E6
:102260006526006067260060692600606B260060B6
:102270006D2600606F260060712600607326006086
:102280007526006077260060792600607B26006056
:102290007D2600607F260060812600608326006026
:1022A0008526006087260060892600608B260060F6
:0822B0008D260060E16A006068
:1022B8004D4B5A69900170B51CD5986900F440508F
:1022C800B0F5805F65D0B0F5005F73D0002864D0AA
:1022D8000020454B5B69C3F3C2630133B0FBF3F0E5
:1022E800414B424A5B69C3F382230133B0FBF3F0ED
:1022F800106070BD3E4B1A68D10342D51B683D4D36
:1023080013F4404F18BF0025394B1A6BD20330D550
:102318001B6B384C13F4404F18BF0024344E002375
:102328003448316D326EA1FB00010AF0C5F92E4A1E
:102338002044936903F44023B3F5002F42D00ED80C
:10234800002BCDD0B3F5802F25D1D6F80031C3F3BB
:102358000543B0FBF3F303EBC3035800C0E7B3F541
:10236800402F18D1106900F007000130B5FBF0F0DC
:10237800B6E71A6B204812F0010F204C08BF04463C
:10238800CCE71D681B4B05F07F0503FB05F56D08C1
:10239800BAE718489DE70020A2E7A3F510331A69A9
:1023A80012F4803F1A6917D0124B12F4404F08BF3D
:1023B80018468EE70E4B0F481B6B13F4404F18BF9F
:1023C800002086E7D6F8003103F03F03B0FBF3F3B3
:1023D80003EBC303580083E7084B12F0020F0648CB
:1023E80018BF184675E700BF00C00F40C4020020A0
:1023F80000800D4000366E0100389C1C00A4781F38
:10240800704700BF3248334A334908B5D0F888309E
:1024180043F47003C0F88830138923F001031B04C8
:102428001B0C13810B8923F001031B041B0C0B816C
:102438001388580705D5138823F004031B041B0CC5
:102448001380254A1388590705D5138823F00403F8
:102458001B041B0C1380214B1A68920431D5204AA7
:102468005A601E4A4FF6FF734FF0E02193601368DD
:1024780023F0A00343F0200313600B69D80703D5AA
:102488000B6923F001030B61114B5A69920315D4B0
:102498005A6912F4003211D1BFF34F8FBFF36F8F17
:1024A800C3F85022BFF34F8FBFF36F8F5A6942F4BE
:1024B80000325A61BFF34F8FBFF36F8FFFF7A0FF52
:1024C80008BD4CF220514DF6281259605A60C8E7F1
:1024D80000ED00E000800B4000000D4000C00B4004
:1024E80020C528D90E4820F0070085460D488047AA
:1024F8000D480E490E4A884204D003681360043020
:102508000432F8E70B480C4901600C48016841F4B3
:1025180070010160BFF34F8FBFF36F8F00F0D0B829
:10252800000002200D24006000200060B822006036
:102538000000002008ED00E00000002088ED00E029
:10254800FEE7FEE7FEE7FEE7FEE7FEE7FEE7FEE75B
:10255800FEE7FEE7FEE7FEE7FEE7FEE7FEE7FEE74B
:10256800FEE7FEE7FEE7FEE7FEE7FEE7FEE7FEE73B
:10257800FEE7FEE7FEE7FEE7FEE7FEE7FEE7FEE72B
:10258800FEE7FEE7FEE7FEE7FEE7FEE7FEE7FEE71B
:10259800FEE7FEE7FEE7FEE7FEE7FEE7FEE7FEE70B
:1025A800FEE7FEE7FEE7FEE7FEE7FEE7FEE7FEE7FB
:1025B800FEE7FEE7FEE7FEE7FEE7FEE7FEE7FEE7EB
:1025C800FEE7FEE7FEE7FEE7FEE7FEE7FEE7FEE7DB
:1025D800FEE7FEE7FEE7FEE7FEE7FEE7FEE7FEE7CB
:1025E800FEE7FEE7FEE7FEE7FEE7FEE7FEE7FEE7BB
:1025F800FEE7FEE7FEE7FEE7FEE7FEE7FEE7FEE7AB
:10260800FEE7FEE7FEE7FEE7FEE7FEE7FEE7FEE79A
:10261800FEE7FEE7FEE7FEE7FEE7FEE7FEE7FEE78A
:10262800FEE7FEE7FEE7FEE7FEE7FEE7FEE7FEE77A
:10263800FEE7FEE7FEE7FEE7FEE7FEE7FEE7FEE76A
:10264800FEE7FEE7FEE7FEE7FEE7FEE7FEE7FEE75A
:10265800FEE7FEE7FEE7FEE7FEE7FEE7FEE7FEE74A
:10266800FEE7FEE7FEE7FEE7FEE7FEE7FEE7FEE73A
:10267800FEE7FEE7FEE7FEE7FEE7FEE7FEE7FEE72A
:10268800FEE7FEE7FEE7FEE74FF0E023D3F82C2D48
:10269800002A00DBFEE7D3F82C2D42F00042C3F8F5
:1026A8002C2D836902338361704700BF1EF0040F2D
:1026B8000CBFEFF30880EFF30980FFF7E5BF0000D8
:1026C800384939480A1A06D0072291438D46CC2248
:1026D800354800F061F8354935480A1A09D007220B
:1026E800914381F30988022282F31488CC2200F0F6
:1026F80053F830483049314A00F043F830483149FE
:10270800314A00F03EF831483149324A00F039F890
:1027180031483249324A00F034F832483249334AB3
:1027280000F02FF832483349334A00F02AF833488A
:102738003349344A00F025F833483449002200F080
:102748002BF833483349002200F026F83248334941
:10275800091A082903DB00220260043001601F48BF
:102768001F49884205D00268043003B4904703BC6F
:10277800F7E700208646EC4600200021284A9047CB
:10278800FEE7884207D0521A05D0037801300B7053
:102798000131013AF9D17047884202D00270013004
:1027A800FAE77047F8310020F8290020F8390020AE
:1027B800F831002088F10060B8020020DC02002017
:1027C8002C2800602C28006044DA006088F1006042
:1027D800B8020020B802002044DA006044DA006041
:1027E80048DA006044DA006044DA006044DA0060E5
:1027F80048DA006048DA006088F10060ACF10060F7
:10280800F4280020F4280020DC020020F42800200E
:10281800F4280020F4280020F4280020F4290020BF
:0428280035C5006052
:10282C00012A2DE9F0474FEA104E1FFA80F900F00B
:10283C00D980002900F0A4810F2A104672D941F2E8
:10284C00AF56B24240F2E98001F5AE52DFF8C081DA
:10285C0041F2B0556D4C074601F1100C40441CF888
:10286C00103C0CF1100C1CF81FAC4B440AEB030988
:10287C001CF81EAC4B44CA441CF81D9C5344D14458
:10288C001CF81CAC4B44CA441CF81B9C5344D1444C
:10289C001CF81AAC4B44CA441CF8199C5344D14440
:1028AC001CF818AC4B44CA441CF8179C5344D14434
:1028BC001CF816AC4B44CA441CF8159C5344D14428
:1028CC001CF814AC4B44CA441CF8139C5344D1441C
:1028DC001CF812AC4B44CA441CF8119C624553447E
:1028EC00D1444B449E44BAD1A4FB093CB042A4FB56
:1028FC000EA329444FEADC3C2A444FEAD333CCEBF9
:10290C000C3A0CEB0A1CA9EB0C09C3EB033C03EBD4
:10291C000C13AEEB030E9ED800287BD149EA0E4077
:10292C00BDE8F087002A47D00B78022A4B4491F877
:10293C0001909E449944CE443ED08B78032A99440E
:10294C00CE4439D0CB78042A9944CE4434D00B7978
:10295C00052A9944CE442FD04B79062A9944CE446B
:10296C002AD08B79072A9944CE4425D0CB79082AD2
:10297C009944CE4420D00B7A092A9944CE441BD0DA
:10298C004B7A0A2A9944CE4416D08B7A0B2A994456
:10299C00CE4411D0CB7A0C2A9944CE440CD00B7B6C
:1029AC000D2A9944CE4407D04B7B0E2A9944CE4431
:1029BC0002D08B7B9944CE444FF6F073994503D9E2
:1029CC00A9F57F49A9F1F109104BA3FB0E23DB0BF1
:1029DC00C3EB033203EB0213AEEB030349EA0340F0
:1029EC00BDE8F0870A784FF6F0739144994503D906
:1029FC00A9F57F49A9F1F109CE444FF6F0739E4534
:102A0C008CD9AEF57F4EAEF1F10E87E77180078061
:102A1C0050EAFFFF0F2840F2B680A0F1100501F13B
:102A2C00200401F1100225F00F062D09344412F890
:102A3C00103C103212F81FCC4B4412F81E7C12F8CA
:102A4C00119C9C446744634412F81DCC3B44BC4429
:102A5C0012F81C7C6344674412F81BCC3B44BC4406
:102A6C0012F81A7C6344674412F819CC3B44BC44FA
:102A7C0012F8187C6344674412F817CC3B44BC44EE
:102A8C0012F8167C6344674412F815CC3B44BC44E2
:102A9C0012F8147C6344674412F813CC3B44BC44D6
:102AAC0012F8127C944267446344B9443B444B444F
:102ABC009E44BCD10135A0F11103020701EB0511B5
:102ACC00A3EB060348D00A789144CE44002B43D0A4
:102ADC004A78012B9144CE443ED08A78022B914403
:102AEC00CE4439D0CA78032B9144CE4434D00A79E1
:102AFC00042B9144CE442FD04A79052B9144CE44DB
:102B0C002AD08A79062B9144CE4425D0CA79072B3A
:102B1C009144CE4420D00A7A082B9144CE441BD049
:102B2C004A7A092B9144CE4416D08A7A0A2B9144C6
:102B3C00CE4411D0CA7A0B2B9144CE440CD00A7BD4
:102B4C000C2B9144CE4407D04A7B0D2B9144CE44A0
:102B5C0002D08B7B9944CE440C4BA3FB0912A3FBF4
:102B6C000E13D20BDB0BC2EB023102EB0112C3EBE7
:102B7C000331A9EB020903EB0113AEEB030ECDE617
:102B8C000120BDE8F087024B3B449CE77180078035
:102B9C004FEAFFFF2DE9F041C37806460C4600F1E1
:102BAC003808002B58D1F369A11E023B99423FD241
:102BBC007389376B01FB03774FF400720021404699
:102BCC00776309F09DFE73895A02B2F5004F1446E3
:102BDC0028BF4FF40044B2F5007F04D82BE0640802
:102BEC00B4F5007F26D9204602F0B2FF0546002836
:102BFC00F5D0224600214FEA542809F081FE748951
:102C0C006CB1002403E0444473899C4207D23A1906
:102C1C0043462946707803F061F80028F3D0284623
:102C2C0002F09AFF7389E01A18BF0120BDE8F08109
:102C3C000027C1E7738953B3002403E0013473897F
:102C4C009C42F0D23A1901234146707803F046F8C1
:102C5C000028F3D07389E6E7426B012340784146A4
:102C6C0003F03CF880B9716BB36A326ACB1AF0701E
:102C7C00934298D2B378022B95D10A440123414652
:102C8C00707803F02BF88EE70120BDE8F0811C462C
:102C9C00C9E700BF70B5C37804465BB92378032B32
:102CAC0023D000226078114603F02EF8003818BFAC
:102CBC00012070BD00F13805426B01234078294694
:102CCC0003F00CF8002839D1616BA36A226ACB1A85
:102CDC00E0709342E2D2A378022BDFD10A440123A5
:102CEC002946607802F0FAFFD8E72579012DD8D172
:102CFC0004F138064FF400720021304609F000FE52
:102D0C000F484AF65523A06300F1FF50A4F8363261
:102D1C002B4600F50050D4E905122030C4F82022CF
:102D2C00626AC4F8241231460132C4F81C0260787D
:102D3C00626302F0D3FF00232371B2E7012070BD60
:102D4C0052526141426B8A4201D10020704770B5EA
:102D5C00C37804460D4600F138065BB901232A46B8
:102D6C003146607802F0A4FF10B101204FF0FF351E
:102D7C00656370BD01234078314602F0AFFF80B926
:102D8C00616BA36A226ACB1AE0709342E6D2A378F5
:102D9C00022BE3D10A4401233146607802F09EFFF6
:102DAC00DCE7012070BD00BF2DE9F04790F80090E2
:102DBC0005460E461446B9F1020F08D0B9F1030FBF
:102DCC0041D0B9F1010F14D00220BDE8F087816A1F
:102DDC0001EB1621FFF7B6FF0028F6D1760005F1BE
:102DEC00380306F4FF769C559A19C4F307245470E3
:102DFC003CE0816A06EB560A01EB5A21FFF7A2FF71
:102E0C000028E2D1F3070AF1010705F13808CAF3EB
:102E1C00080A30D518F80A30284603F00F0343EAA5
:102E2C00041308F80A30A96A85F8039001EB5721BE
:102E3C00FFF788FF0028C8D1C7F30802C4F30713B3
:102E4C004244137012E0816A01EBD611FFF77AFF4E
:102E5C000028BAD1B60005F1380224F0704406F40B
:102E6C00FE76935903F070432343935101230020C2
:102E7C00EB70BDE8F08708F80A402846A96A85F887
:102E8C00039001EB5721FFF75DFF00289DD1C7F39D
:102E9C000807C4F3032418F8073008EB070223F0E3
:102EAC000F0323431370E1E701290ED9F8B5C36969
:102EBC000C460546994206D20378022B21D0032BEF
:102ECC0010D0012B03D00120F8BD01207047816A7E
:102EDC0004EB540701EB5721FFF734FFF0B14FF02F
:102EEC00FF30F8BD816A01EBD411FFF72BFF0028EE
:102EFC00F5D1A40004F4FE742544A86B20F07040B6
:102F0C00F8BD816A01EB1421FFF71CFF0028E6D104
:102F1C00630003F4FF732B44188FF8BDC7F3080349
:102F2C00A96A013728462B4401EB572193F83860E6
:102F3C00FFF708FF0028D2D1C7F308072F4497F8F2
:102F4C00383046EA0320E3074CBF0009C0F30B00FE
:102F5C00F8BD00BF70B54FF0FF3600230446B142F8
:102F6C00C37046635DD194F83820B4F8360202F190
:102F7C001803DBB2012B01D9EB2A27D14AF65523D2
:102F8C0098422CD0B4F843305A1E1A4225D1B3F5CE
:102F9C00007F94F8452020D1FAB1531E13421CD166
:102FAC00B4F8463093B194F84830013B012B0DD85E
:102FBC00B4F8493053B1B4F84B307F2B03D8A36D20
:102FCC00B3F5803F02D3B4F84E3043BB4AF65523D9
:102FDC00984214BF0320022070BD032070BD94F8EA
:102FEC008A30462B29D194F88B30412B25D194F87B
:102FFC008C30542B21D194F88D30332B1DD194F877
:10300C008E30322B19D194F88F30202B15D194F8A7
:10301C009030202B11D194F89130202B0DD1002021
:10302C0070BD0D460A46012300F13801407802F0CC
:10303C003FFE90B10420666370BDB4F843305A1E55
:10304C001A4208D194F845202AB1B3F5007F02D179
:10305C00531E1342A4D0022070BD656383E700BFEA
:10306C00F8B50D46002301682B6071B116460A466F
:10307C0012F8013B1F2B0AD93A2BF9D10B78302BC4
:10308C0003D102318A4200F0CE800B20F8BD3A2BDE
:10309C00F4D08B4B1C68002C00F0B280206902F03D
:1030AC0071FD002800F0AE802C6006F0FE0623783F
:1030BC0053B1607802F0E4FDC20705D416B14307A2
:1030CC0000F19C800020F8BD0020208002F064FDFF
:1030DC00C70700F1998016B1460700F18F800021D7
:1030EC002046FFF737FF022864D0042800F09780B1
:1030FC0001286BD8B4F84330616BB3F5007F65D110
:10310C00B4F84E00002800F08C8094F8482020621F
:10311C00531EA270012B59D894F845306381002BB3
:10312C0054D05D1E1D4251D1B4F849703D07278122
:10313C004CD1B4F84B5005B9A56DB4F84660002ECF
:10314C0044D000FB02F206EB171C944465453DD3BA
:10315C00A5EB0C0E9E45BEFBF3F537D3594B9D42A8
:10316C0034D84FF6F5739D426AD840F6F5730E4489
:10317C0061629D4205F1020501EB0C03A662E5615B
:10318C00236352D917B332446D00022305F2FF15A5
:10319C00E262B0EB552F19D34FF0FF328021C4E916
:1031AC0005222171484A2370138801339BB2138086
:1031BC00E38087E7D4F8FE11D4F80E52D4F81E62DF
:1031CC00D4F82E7221B955B98EB9FFB90D20F8BDBE
:1031DC002046FFF7BFFE01288CD9002DF4D02946DC
:1031EC002046FFF7B7FE012884D9002EEDD03146DA
:1031FC002046FFF7AFFE0128E7D87BE70A20F8BD91
:10320C000C20F8BD0F20F8BD0320F8BD3946204630
:10321C00FFF7A0FE01287FF66DAF0428D6D1012060
:10322C00F8BDE06D71E7026033E7002FCED005EBFF
:10323C00450305F00105324405EB53050123A5E7D1
:10324C0001EB0C0302350E4461622363B4F8623067
:10325C00A6623B43E561B9D1AD00626E05F2FF1386
:10326C00E262B0EB532FB1D3B4F868204FF0FF33C8
:10327C008020012A2071C4E9053301D0032391E792
:10328C0001312046FFF75EFD0028F7D14AF65522A2
:10329C00B4F8361220719142F0D1A26B0B4B9A42CA
:1032AC00ECD103F1FF53D4F81C2203F50053203367
:1032BC009A42E3D1D4E98823C4E90532DEE700BFA2
:1032CC00E0020020F5FFFF0FDC02002052526141AA
:1032DC00B1F5001F2DE9F84FD0F800902BD2CA069B
:1032EC000C4628D18568074601613DB3B9F80A3010
:1032FC00B4EB432F4FEA4328C0F08780012D1AD03E
:10330C004E46F369AB4216D93378022B4CD0032BC3
:10331C002FD0012B0FD1B16A05EB550A304601EBCA
:10332C005A21FFF70FFD002852D00120BDE8F88F7D
:10333C000023C7E905530220BDE8F88F99F8003047
:10334C00022B3FD8B9F80830B3EB541FF3D9D9F896
:10335C002C30C7E90553002BEDD009F13809C4F323
:10336C00080103EB542300204944C7E90631BDE8AA
:10337C00F88FB16A304601EBD511FFF7E3FC00285A
:10338C00D3D1AB0003F4FE7333449D6B25F0704531
:10339C00012DD0D9D9F81C30AB42CCD9A4EB080400
:1033AC00A04534D83E68ACE7B16A304601EB152134
:1033BC00FFF7C8FC0028B8D16B0003F4FF7333444B
:1033CC001D8FE5E7D9F82C30002BBBD01D468DE7BF
:1033DC00CAF30803B16A0AF1010A3046334401EB1F
:1033EC005A2193F838B0FFF7ADFC00289DD1CAF3F1
:1033FC00080AB2449AF838304BEA032BEB074CBF5F
:10340C004FEA1B15CBF30B05C2E7D9F81C30023B76
:10341C00AA1E9A428CD2B9F80A10D9F8303002FBA5
:10342C00013396E72DE9F04F002187B00446076879
:10343C00FFF74EFF0546E0B94FF0FF0B4FF0FF389A
:10344C00D4F8189007F1380A5D46C4F82C807A6BD2
:10345C004A4514D0FB78002B40F0BF8001234A462C
:10346C005146787802F024FC38B14FF0FF337B637F
:10347C000125284607B0BDE8F08FC7F83490E669FF
:10348C003278A2B1F37AE52A03F03F01A17103D09F
:10349C00180729D50F2969D0FF25C4F82C80266977
:1034AC0023682036B6F5001F06D30023A36104253C
:1034BC00284607B0BDE8F08FD4F81890B9F1000F8A
:1034CC00F5D0C6F3080252B909F101096169C4F8D3
:1034DC00189000295DD11989B1EB561FE5D9383305
:1034EC0026611344E361B2E70F293FD0002D00F0B1
:1034FC008F8094F82B5015F00105CDD194F8202035
:10350C0033789A42C8D1727894F821309A42C3D158
:10351C00B27894F822309A42BED1F27894F82330E3
:10352C009A42B9D1327994F824309A42B4D1727952
:10353C0094F825309A42AFD1B27994F826309A4259
:10354C00AAD1F27994F827309A42A5D1327A94F81C
:10355C0028309A42A0D1727A94F829309A429BD1A1
:10356C00B27A94F82A309A4296D182E794F82B30AA
:10357C00590694D4530640F19D80236902F0BF0292
:10358C0096F80DB0E362737B5B4500F09880FF25E5
:10359C0085E75889013810EA5620A0D118460292C6
:1035AC000193FFF781FC012840F2C680431C3FF4D5
:1035BC005FAF019BD9698842BFF477AF0239606174
:1035CC000238029A884280F0B580B3F80AC0196BB1
:1035DC0000FB0C19C4F8189081E701235146787848
:1035EC0002F07CFB00287FF443AF796BBB6A3A6A2C
:1035FC00CB1AF8709342BFF431AFBB78022B7FF437
:10360C002DAF0A4401235146787802F067FB25E779
:10361C0033787078DA01B17896F8039042EA530265
:10362C0096F804E096F805C00244B079C2F346035C
:10363C0043EAC213327A51FA83F30192727AF17926
:10364C000292C3F3460242EAC31259FA82F296F886
:10365C000A90C2F3460343EAC2135EFA83F3C3F340
:10366C00460242EAC3125CFA82F2C2F3460343EA10
:10367C00C21350FA83F3C3F3460242EAC31251FA5F
:10368C0082F2C2F3460343EAC213019A52FA83F35D
:10369C00C3F3460242EAC312029B53FA82F2C2F30C
:1036AC00460343EAC21359FA83F3DBB29B457FF41A
:1036BC0020AFDEE695423FF466AFFF25EFE6738B55
:1036CC00002B7FF464AF35780121F86805F03F05D5
:1036DC00DFF894900590013D01970294074605EBA5
:1036EC00450308463446049205EB8305CDF80CA03F
:1036FC0009F10D0310E0FF2D304616D801F022FC25
:10370C00824637F81500013501F01CFC8245304625
:10371C000BD1144B994511D019F8012BA65A00283E
:10372C00E9D14FF6FF729642F4D0DDE90174DDF871
:10373C000CA02CE791464DE702259AE62646014659
:10374C00019F3378049A5806DDE9024A00D511B975
:10375C00013AD5B2A3E6059B33F81530002BF7D010
:10376C0015E700BFE9DA0060DCDA00602DE9F04F04
:10377C000B7885B00D4607462F2BD0F800E003D10F
:10378C0015F8013F2F2BFBD05C2BF9D00023BB602D
:10379C0028781F2840F257817346DFF82893F046AB
:1037AC00AA46DD6828B900232B80062005B0BDE8A9
:1037BC00F08F0AF1010AA5F1020B002440F25231FC
:1037CC0001F0ACFB06460028EFD01F2E48463146D0
:1037DC0040F24A812F2E00F0D6805C2E00F0D38070
:1037EC007F2E03D809F02EF80028DED1FF2C04F12F
:1037FC000104DAD02BF8026F1AF8010B0028DDD186
:10380C00042605EB440202E0013C00F0D18032F8C2
:10381C00023D202BF8D02E2BF6D04FF0000325F8CC
:10382C0014302B88202B40F01881AB1C0022194639
:10383C0033F8020B934601322028F8D00BF1020B1F
:10384C0046F0030605EB440301E0013C03D033F8DA
:10385C00022D2E2AF9D14FF020337B623B62C7F840
:10386C0027300988002940D04FF0000C08223B4635
:10387C00CDF800802F46CDF804A01546E046E24670
:10388C001A46202903D02E2952D15C4550D046F03F
:10389C000306584637F8101000F1010B0029F0D13F
:1038AC001746D446DDF800802A4697F82030DDF81C
:1038BC0004A0E52B02D1052387F82030082A00F05C
:1038CC00A1800CF00C030C2B74D00CF00303032B15
:1038DC0070D0B10709D41CF0010F18BF46F01006C8
:1038EC001CF0040F18BF46F00806384687F82B600A
:1038FC00FFF798FD97F82B30002866D15A073FF553
:10390C0055AFBB79DB0640F1C3803A6908F1380347
:10391C0098F80010C2F30802032913445A8B02D101
:10392C009B8A42EA0342BA603B689AF8000038E787
:10393C00454517D95C4515D07F294ED85F48CDE950
:10394C00021208F07FFFDDE90212002872D046F067
:10395C0003065F2102EB080C584608F101088CF8AD
:10396C00201097E70B2D00F097805C4502D046F0B5
:10397C00030695D34FEA8A0320460B254FF008081F
:10398C005FFA83FA86E79AF800605C2E01D02F2E3E
:10399C0005D11AF8016F2F2EFBD05C2EF9D01F2EFB
:1039AC008CBF00260126B600002C7FF42AAFFAE665
:1039BC002C80FAE646F00206384687F82B60FFF7B3
:1039CC0031FD97F82B30002898D004287FF4EEAE08
:1039DC0013F0040F08BF0520E8E6084640F2523108
:1039EC00029201F07FFA0146029A46F0020011F0B1
:1039FC00800F0ED001F07F01314E715C064600291C
:103A0C00A5D09BE74FEA8C035FFA83FC03F00C0311
:103A1C0059E7FF29F2D905F1FF3CC44533D94FEAE8
:103A2C00112C064602EB0800C9B208F1010880F817
:103A3C0020C08FE7A1F1410080B2192819D84AF0B3
:103A4C00020AC9B286E780230021384687F82B305A
:103A5C0005B0BDE8F04FFFF73BBC2E2B29464FF0CD
:103A6C00010B7FF4EFAEEBE60426002C7FF4C9AE1D
:103A7C0099E6A1F1610080B219289CBF20394AF067
:103A8C00010AC9B266E746F003065846A84601E7A4
:103A9C00052005B0BDE8F08F92F82030D446DDF853
:103AAC0000801746E52BDDF804A046F003067FF4F2
:103ABC0008AF052382F8203003E700BF54DA00601A
:103ACC005CDA006048DA00602DE9F84F064689465A
:103ADC00056889BBD5F81480B8F1000F18D1AB6913
:103AEC0033B3EB69022B23D937684FF0010802245A
:103AFC00FB69A34208D93B78022B00F0B480032B5E
:103B0C006FD0012B00F0898001242046BDE8F88F8E
:103B1C00EB694345E3D9AA6952B108F10104A34208
:103B2C0000F2C980B8F1010F02D037680224DFE738
:103B3C0000242046BDE8F88F2846FFF7B5F9012888
:103B4C000446E1D9601C47D0EB69A342DDD8AA69D1
:103B5C00002AEDD009F101073068BB428CBFB84692
:103B6C004FF002084146FFF79FF901280446CCD0DC
:103B7C00411CCAD0002840F08480B8F1000F00F03E
:103B8C008E804446EB69A342BED94FF0FF322146EA
:103B9C002846FFF709F968B9B9F1000F0AD0B9F155
:103BAC00010FB1D0EB699945AED222464946284661
:103BBC00FFF7FAF870B96C61D5E90623023B9A421B
:103BCC0001D8013AAA612B79204643F001032B71ED
:103BDC00BDE8F88F012897D14FF0FF342046BDE89F
:103BEC00F88FB96A384601EBD411FFF7ABF800280F
:103BFC00F2D1A30003F4FE733B449B6B23F07043A0
:103C0C00002BBFD0012B3FF47FAF444590D0013443
:103C1C00EB699C4286D237686AE7B96A04EB540BAD
:103C2C00384601EB5B21FFF78DF80028D4D1CBF39C
:103C3C000803B96A0BF1010B38463B4401EB5B21DD
:103C4C0093F838A0FFF77EF80028C5D1CBF3080B0A
:103C5C00E207BB449BF838304AEA03234CBF1B09EC
:103C6C00C3F30B03CCE7B96A384601EB1421FFF719
:103C7C0069F80028B0D1630003F4FF733B441B8F39
:103C8C00BEE7D5F81480EB69B8F1010F08D94345AC
:103C9C0006D908F10104A3427FF647AFBBE7EB69F5
:103CAC009F423C4601D3C8463CE7012C37687FF65F
:103CBC002BAFC8461CE72F461AE700BF2DE9F0478B
:103CCC000569044606682035B5F5001F04D30023AA
:103CDC00A3610420BDE8F0878369002BF9D0C5F3FC
:103CEC000808B8F1000F36D10F46013341698361E2
:103CFC00002937D07389013B13EA55292BD1304663
:103D0C00FFF7D2F80128824633D9B0F1FF3F2ED00D
:103D1C00F369834212D8002FD9D061692046FFF78E
:103D2C00D3FE824638B3012823D0B0F1FF3F1ED01A
:103D3C0001463046FEF72EFFC8B9F369023BC4F8C2
:103D4C0014A0AAF1020A9A4503D27289336B0AFBBA
:103D5C000239C4F818903836002025614644E661D3
:103D6C00BDE8F0873389B3EB551FF4D8AFE70120DA
:103D7C00B0E70220AEE70720ACE700BF2DE9F04F1B
:103D8C0090F82BB08BB01BF0A00140F0C2820368FE
:103D9C0005460193DB681A88002A00F031848946B5
:103DAC001A4632F8021F09F101090029F9D105F16F
:103DBC00200607AF1BF0010F96E8070087E8070005
:103DCC0057D11BF00204019F00F0DB8109F10C03B9
:103DDC00D54A00212846A2FB03239C08FFF778FA5A
:103DEC00824604F10109002840F0D581804608E0A4
:103DFC005209CBB19046FFF761FF8246002840F094
:103E0C008182A9693846FEF79DFF824608F10108B8
:103E1C0001212846BAF1000F40F07482EB691B783F
:103E2C00E52BB3FA83F2E3D1C145E4D1002C40F089
:103E3C007682A9690198FEF785FF8246A8B90146EA
:103E4C002022E86908F05CFDEB69012203CE1860C2
:103E5C005960B17830889972188195F82B30E969DE
:103E6C0003F018030B73019BDA7050460BB0BDE8DE
:103E7C00F08F40224FF00108AC4C85F82B20CDE997
:103E8C0002B9DDF80490B446B8F1050F97E80700C5
:103E9C00ACE803002CF8022B4FEA12428CF80020FD
:103EAC0040F2C5811A88002A00F024821846C446C4
:103EBC0002F0010E51081CF4004F4FEA92030EEB76
:103ECC004C0E01F0010103F001034FEAD20C18BFB4
:103EDC008EEA040E0CF0010C01EB4E011EF4004FA7
:103EEC0018BF614003EB410309044FEA121148BFAC
:103EFC00634001F001010CEB430C1B044FEA52131D
:103F0C0048BF8CEA040C03F0010301EB4C011CF4D8
:103F1C00004F4FEA921C18BF61400CF0010C03EBF0
:103F2C00410309044FEAD21148BF634001F001017B
:103F3C000CEB430C1B044FEA122348BF8CEA040C15
:103F4C0003F0010301EB4C011CF4004F4FEA522C1F
:103F5C0018BF61400CF0010C03EB410309044FEA5C
:103F6C00922148BF634001F001010CEB430C1B0490
:103F7C004FEAD22348BF8CEA040C03F0010301EB97
:103F8C004C011CF4004F4FEA123C18BF61400CF07E
:103F9C00010C03EB410309044FEA523148BF634063
:103FAC0001F001010CEB430C1B044FEA923348BFA8
:103FBC008CEA040C03F0010301EB4C011CF4004FE0
:103FCC004FEAD23C18BF614003EB41030A0430F8BE
:103FDC00022F48BF63400CEB430C1B0448BF8CEA18
:103FEC00040C002A7FF464AF0CF00F034FEA1C1092
:103FFC0003F13001392988BF03F13701BCF10F0FF0
:10400C008DF81B1040F2188100F00F0E4FEA1C22A5
:10401C000EF13003392B88BF0EF137030F288DF8C2
:10402C001A3040F24D8102F00F0E4FEA1C300EF1A7
:10403C003003392B88BF0EF137030F2A8DF8193056
:10404C0040F2448100F00F0E4FEA1C420EF1300397
:10405C00392B88BF0EF137030F288DF8183040F23A
:10406C003B8102F00F0E4FEA1C500EF13003392B3E
:10407C0088BF0EF137030F2A8DF8173040F23281CA
:10408C004FEA1C6300F00F0C0CF13002392A88BF88
:10409C000CF137020F288DF8162040F2078103F03F
:1040AC000F0303F13002392A88BF03F137024FF0B6
:1040BC007E038DF8152000228DF81430134602F182
:1040CC00280006EB030E062B02F1020C684403F1E8
:1040DC00020A10F814BC10F8130C06F803B08EF892
:1040EC00010013D0BCF1080F22D12022052B03F1C3
:1040FC00030006F80A2009D0431CC0F10802202155
:10410C003044082B88BF012208F0FAFB2846FFF741
:10411C0089F9824648BB08F10108B8F1640F3DD01B
:10412C00D9F80C30AFE600BF4FECC44E21100100A3
:10413C000CF12800052B0DEB000C1CF8140C03F1F2
:10414C00030C06F80A0002F10300DFD008282BD17B
:10415C002022042B03F1040006F80C20CCD12846B5
:10416C00FFF760F982460028D5D00428DDE902B9B2
:10417C007FF47BAE1BF002042F6885F82BB07FF424
:10418C0025AE00212846FFF7A3F84FF0010982461F
:10419C0000283FF42BAE04287FF467AE4FF0070ADB
:1041AC0050460BB0BDE8F08F2830042B684410F853
:1041BC00140C06F80C0002F1040003F1040CA5D059
:1041CC00082807D12022032B03F1050006F80C2048
:1041DC0092D19BE72830032B684410F8140C06F896
:1041EC000C0002F1050003F1050C8FD0082808D152
:1041FC002022022B03F1060006F80C207FF47CAF82
:10420C0084E72830022B02F10602684410F8140CE3
:10421C0006F80C0003F106003FF478AF082A35D1FC
:10422C0020223254002B7FF471AF072064E708F191
:10423C003001C9B28DF81B104FF07E0306228DF8A9
:10424C001A3095F82030202B52D095F82130202BA5
:10425C0052D0022A32D095F82230202B4ED0032A8D
:10426C002CD095F82330202B4AD0042A26D095F850
:10427C002430202B00F0C281062A40F0BC8195F836
:10428C002530202B0CBF0523062318E702F1280C40
:10429C00EC441CF814CC06F800C0002B7FF436AFAD
:1042AC00062A18BF202185F827102FE77E2301222C
:1042BC008DF8153095F82030202B19D01346FEE6DA
:1042CC004FF07E0305228DF81930BAE74FF07E03CC
:1042DC0004228DF81830B4E74FF07E0303228DF8DA
:1042EC001730AEE74FF07E0302228DF81630A8E7A8
:1042FC000023E4E6C44677E60123E0E60223DEE68B
:10430C000323DCE6BAF1040F7FF4AFAD4FF0070ADC
:10431C0046E74FF0060A50460BB0BDE8F08F29690E
:10432C002846A1EB4411FEF7D3FF824600287FF408
:10433C009CAD95F820304FF00F0B95F82170DA01F9
:10434C0095F8220095F8231042EA530295F8248040
:10435C0095F825A03A4495F8269095F827E04FF665
:10436C00FD77C2F3460395F828C043EAC21350FA0E
:10437C0083F395F82900C3F3460242EAC31251FABB
:10438C0082F295F82A10C2F3460343EAC21358FA94
:10439C0083F24FF6FF78C2F3460343EAC2135AFA8C
:1043AC0083F3C3F3460242EAC31259FA82F2DDF8F0
:1043BC000490C2F3460343EAC2135EFA83F3C3F3D9
:1043CC00460242EAC3125CFA82F2C2F3460343EAA3
:1043DC00C21350FA83F3C3F3460242EAC31351FAF1
:1043EC0083F3DBB2029328E0A3F80380A3F80580E3
:1043FC00A3F80780A3F80980A3F80E80A3F8108017
:10440C00A3F81280A3F81480A3F81680A3F81880E0
:10441C00A3F81C80A3F81E8040F040001870012304
:10442C000021284689F80330FFF748FC8246002813
:10443C007FF41BAD013C3FF4FCACA9694846FEF788
:10444C0081FC0246824600287FF40FADEB69E0B296
:10445C00D9F80C105A83029AA3F80BB05A73421E67
:10446C0002EB420C02EB8C0231F812C00CF1FF3E55
:10447C0083F801C04FEA1C2C1FFA8EFE83F802C091
:10448C004FEA420CBE45AFD8013231F812E052006F
:10449C000EF1FF3A83F803E04FEA1E2E1FFA8AFA58
:1044AC0083F804E0BA45A1D80A44B2F802E00EF150
:1044BC00FF3A83F805E04FEA1E2E1FFA8AFA83F8BA
:1044CC0006E0BA4594D8B2F804E00EF1FF3A83F84E
:1044DC0007E04FEA1E2E1FFA8AFA83F808E0BA4565
:1044EC0088D8B2F806E00EF1FF3A83F809E04FEAFB
:1044FC001E2E1FFA8AFA83F80AE0BA453FF67CAF03
:10450C00B2F808E00EF1FF3A83F80EE04FEA1E2EE7
:10451C001FFA8AFA83F80FE0BA453FF66FAFB2F88C
:10452C000AE00EF1FF3A83F810E04FEA1E2E1FFA54
:10453C008AFA83F811E0BA453FF662AFB2F80CE0A4
:10454C000EF1FF3A83F812E04FEA1E2E1FFA8AFA98
:10455C0083F813E0BA453FF655AFB2F80EE00EF112
:10456C00FF3A83F814E04FEA1E2E1FFA8AFA83F8FA
:10457C0015E0BA453FF648AFB2F810E00EF1FF3A3D
:10458C0083F816E04FEA1E2E1FFA8AFA83F817E01A
:10459C00BA453FF63BAFB2F812E00EF1FF3A83F8A2
:1045AC0018E04FEA1E2E1FFA8AFA83F819E0BA4572
:1045BC003FF62EAFB2F814E00EF1FF3A83F81CE090
:1045CC004FEA1E2E1FFA8AFA83F81DE0BA453FF611
:1045DC0021AFD28A02F1FF3E9A77120ADA771FFADC
:1045EC008EF2BA423FF618AF01EB0C02528B002A46
:1045FC007FF414AF10E70522134660E504235EE553
:10460C009146FFF7D4BB00BF01292DE9F04F0C46B2
:10461C0083B005680AD9EB698B4207D90646114667
:10462C0042B92F464FF001089C4211D3022003B02F
:10463C00BDE8F08F9342F9D9012AF7D04FF0FF3241
:10464C002846FEF7B1FB0028F1D13768FB69E9E792
:10465C003B78022B00F09280032B10D0012BE5D17C
:10466C00B96A04EB5409384601EB5921FEF76AFB91
:10467C00002800F0AC80012003B0BDE8F08FB96ACF
:10468C00384601EBD411FEF75DFB0028F3D1A300F3
:10469C0003F4FE733B44D3F8389039F0704900F0C2
:1046AC00B380B9F1010FC1D0EB699C42BED22F7817
:1046BC00022F2CD0032F4AD0012FB7D1A96A04EBBB
:1046CC00540A284601EB5A21FEF73CFB0028AED1D8
:1046DC00E2070AF1010305F1380BCAF3080A60D4AA
:1046EC000BF80A002846A96AEF7001EB53210193DD
:1046FC00FEF728FB00289AD1019BC3F308031BF893
:10470C0003009B4400F0F0008BF800000CE0A96A59
:10471C00284601EB1421FEF715FB002887D1640015
:10472C0004F4FF742C442087EA69AB69911E85F868
:10473C0003808B4205D20133AB612B7943F001032B
:10474C002B714A4560D937684C46FB696CE7A96AFE
:10475C00284601EBD411FEF7F5FA00287FF467AF79
:10476C00A40005F1380204F4FE74115910532244CC
:10477C000B0E907003F0F003D370D5E7B96A38468E
:10478C0001EB1421FEF7DEFA00287FF474AF63000E
:10479C0003F4FF733B44B3F83890B9F1000F80D1A8
:1047AC0032E01BF80A202846019302F00F020BF8A6
:1047BC000A20A96AEF7001EB5321FEF7C3FA019BA3
:1047CC0000287FF434AFC3F308039B449CE7C9F380
:1047DC000803B96A09F1010938463B4401EB592138
:1047EC0093F838A0FEF7AEFA00287FF444AFC9F373
:1047FC000809E107B94499F838304AEA032905D584
:10480C005FEA19197FF44DAF002010E7C9F30B09CB
:10481C00B9F1000F7FF445AFF6E700BF70B582B079
:10482C00CDE9001069B114468C461CF8013B1F2BD6
:10483C000BD93A2BF9D10B78302B02D102318C45A4
:10484C0005D00B24204602B070BD3A2BF3D0164E87
:10485C0035682DB1286901F08FF908B300232B704E
:10486C00019D35B10020294601F8100B01F076F9B5
:10487C00B0B13560002CE5D0002201A96846FEF7E6
:10488C00EFFBA0F10B03019A0446DBB2012BD9D943
:10489C00002AD7D00F28D5D0106901F07BF9D1E7C9
:1048AC000224204602B070BDE00200202DE9F04F3A
:1048BC0091B0019100286AD002F03F0517460646D8
:1048CC0003A901A82A46FEF7CBFBDDF80C800446B1
:1048DC0088B1B0F10C0518BF012500233360B8F185
:1048EC00000F04D01DB104F0FB030B2B2AD1204682
:1048FC0011B0BDE8F08F4FF40070CDF8108001F0CE
:10490C0027F9814600285AD0C8F80C0004A8019950
:10491C00FEF72CFF0346E8B99DF93B30002BC0F2A3
:10492C00D98017F01C0F23D09DF8163013F0110FFF
:10493C004ED17B0740F1D9804846082401F00CF990
:10494C0000233360D8F8100001F024F9204611B090
:10495C00BDE8F08F17F01C0F28D0042840D0B3F11D
:10496C000C0518BF012548461C4601F0F5F8B4E7C4
:10497C009DF81630D9062ED4BA0740F1BB80DB0760
:10498C0040F1B8804846072401F0E6F8D8E709243E
:10499C00204611B0BDE8F08F013F51464046FEF76E
:1049AC00D1F9C8F814700346002844D0B3F10C05B3
:1049BC001C4618BF0125484601F0CEF88DE7B8F12A
:1049CC00000F03D0D8F8100001F0E4F811248EE7A2
:1049DC0001250724EFE74846042401F0BDF8AFE7B2
:1049EC0004A8FFF7CBF903460028B8D145F0080519
:1049FC0001F0AEF90B9BC3F80E000B9BC3F816002D
:104A0C0098F800200B9B032A5F8B02D19A8A47EA05
:104A1C0002472022DA7200220B9B5A8398F800106E
:104A2C00032908BF9A8200220B9BDA61012388F8C4
:104A3C000330002F7AD145F04005D8F8343033627A
:104A4C000B9B736298F800205F8B032A02D19A8A21
:104A5C0047EA02470021B76006F1280AD3F81CB0D8
:104A6C00B8F806304FF4007271745046F161716100
:104A7C00C6F80080C6F80CB0B380357407F040FF60
:104A8C00A9062ED5BBF1000F2BD0B8F80A30C6F80A
:104A9C0014B0BBEB432F4FEA432556D93946404659
:104AAC00FEF702FA0128ABEB050B07460CD9421CAA
:104ABC0023D05D4521D239463068FEF7F5F901283F
:104ACC00ABEB050B0746F2D80224B061484601F067
:104ADC0043F835E717F01C0F4FF0010508D10624F9
:104AEC0069E7484601F038F82CE73807A5D57FE789
:104AFC00062338E73807A0D59DE77B1CB76136D075
:104B0C00CBF30803002BECD0D8F81C30023F023B4F
:104B1C009F4206D2B8F80A30D8F8302007FB03229F
:104B2C00AAB94846022401F017F809E704A8394647
:104B3C00D8F834A0FFF768FD00283FF42DAFB0F192
:104B4C000C05044618BF012535E7B761D8E702EB21
:104B5C005B2251460123F26198F8010001F0A8F89C
:104B6C000028BED04846012400F0F6FFE8E60124F8
:104B7C00ACE700BF2DE9F04F1F46002383B03B602C
:104B8C0050B1036804463BB115461A7822B18846E9
:104B9C00DA888188914205D04FF0090B584603B052
:104BAC00BDE8F08F186900F0EDFF002800F0C08020
:104BBC002368587801F064F8C20700F1D78094F8A4
:104BCC0011B0D4F80090BBF1000F40F0D78094F8EE
:104BDC0010A01AF0010A00F096806169E668761A56
:104BEC00AE4228BF2E46002E40D0CDF800B0C1F307
:104BFC000805002D5CD1B9F80A20013A12EA5122BD
:104C0C003CD0A069D9F81C300238023B984243D200
:104C1C00B9F80A10D9F8305001FB0055002D3BD0E3
:104C2C00B6F5007F154450D302EB56204FEA562BB5
:104C3C00884299F8010088BFA1EB020B2A46414635
:104C4C005B4601F035F8002867D194F91020002A52
:104C5C0071DB4FEA4B253B68761BA8442B443B6029
:104C6C00616929446161C2D1DDF800B0B9F1000F6E
:104C7C0094D0D9F8100000F08DFF8FE700293BD1BC
:104C8C00A068012808D9431C47D0D9F81C30A06172
:104C9C000238023B9842BBD302234FF0020B6374E1
:104CAC00D9F8100000F076FF584603B0BDE8F08F3D
:104CBC0004F128012944C5F500754046B54228BFCA
:104CCC0035462A4607F0E6FDC5E7E269AA422CD034
:104CDC0094F9103004F12801002B39DB01232A460A
:104CEC0099F80100019100F0E3FF0199A8B9E56181
:104CFC006569C5F30805DDE7A16920680192FEF737
:104D0C00D3F8019ABDE7B9F1000F03D0D9F8100020
:104D1C0000F040FF4FF0070B40E70123D3466374CC
:104D2C00D9F8100000F036FF38E704F12801DEE76F
:104D3C004FF00F0B32E7E069401B584589D208EB66
:104D4C0040204FF4007204F1280107F0A3FD80E726
:104D5C00012399F80100019100F0C0FF019900288E
:104D6C00DBD1237C03F07F032374B7E72368002B8C
:104D7C003FF412AF186900F00DFF0DE7ABF10B0318
:104D8C00012B7FF60BAFB9F1000F3FF407AFBBF16E
:104D9C000F0F7FF46EAF584603B0BDE8F08F00BF25
:104DAC00F8B540B1036804462BB11A781AB1818862
:104DBC00DA88914202D009252846F8BD186900F01E
:104DCC00E1FE00287FD02368587800F059FFC10716
:104DDC007BD4237C26685A0617D51B0666D400F0B4
:104DEC00B7FF216A07463046FDF7ACFF05460028A1
:104DFC002ED0002EE0D00C28DED000F0FB030B2BC5
:104E0C00DAD0306900F0C6FED6E7002ED3D0306978
:104E1C0000F0C0FE2368002BCDD01A78002ACAD02F
:104E2C00A188DA889142C6D1186900F0ABFE00283F
:104E3C0049D02368587800F023FF10F0010523684F
:104E4C0044D12560002BB7D0186900F0A3FEB3E75E
:104E5C00636ADA7A42F02002DA72A2682168C2F33D
:104E6C0007209A76D8760978032903D1120C1A7583
:104E7C00120A5A75E1680022C3F816703046D961DF
:104E8C005A820123F370FDF705FF237C0C2805469D
:104E9C0023F0400323748FD000F0FB030B2B8BD03B
:104EAC00306900F077FE002DB4D085E70123E2696C
:104EBC0004F12801707800F011FF70B9237C03F025
:104ECC007F0323748BE70F2576E72368002B3FF4D1
:104EDC0072AF186900F05EFE6DE73069012500F0D5
:104EEC0059FE69E77F2801D880B27047B0F5803F42
:104EFC0010D240F2523399420CD1074A002302E0FF
:104F0C000133802B06D032F8021B8142F8D180335A
:104F1C0098B27047002070479CDD00607F2806D94E
:104F2C00FF2803D840F25233994201D00020704739
:104F3C00024B034A034432F81300704780FFFF7F93
:104F4C009CDD0060B0F5803F1DD2254B254A30B565
:104F5C00B0F5805F28BF134684B204330AE033F8FF
:104F6C00022C5FFA82FC120A0CEB010E70450BDB73
:104F7C00043392B133F8041C1D464A1E92B294427B
:104F8C00EDD8204630BD7047082AFAD8DFE802F089
:104F9C000C1016191C1F2225080005EB4C03DCE72E
:104FAC00A4F5E354A4B2ECE7411A33F81140E8E756
:104FBC00631A03F00103E31A9CB2E2E7103CA4B2BB
:104FCC00DFE7203CA4B2DCE7303CA4B2D9E71A3CC2
:104FDC00A4B2D6E70834A4B2D3E7503CA4B2D0E7CD
:104FEC00A8DB0060ECDA00609A4B5A69F0B59A4E77
:104FFC0094039A4D85B0A5EB06050ED5BFF34F8FE4
:10500C00BFF36F8F5A69002122F400325A61C3F842
:10501C005012BFF34F8FBFF36F8F8E494B69D8037C
:10502C0035D50023C1F88430BFF34F8F4B6923F47F
:10503C0080334B61BFF34F8F03AB02AAC1F87022D0
:10504C00C1F8703201ABC1F87032BFF34F8FBFF3B0
:10505C006F8FD1F8803043F6E077C3F3C90C01931E
:10506C00C3F34E335C0104EA0700634640EA8372E3
:10507C00013BC1F874225A1CF8D1203C14F1200FCA
:10508C00F1D1CDE90233BFF34F8FBFF36F8FBFF375
:10509C005F8F704B5A6A22F480325A62D3F8942094
:1050AC0022F00102C3F89420BFF34F8FBFF36F8F30
:1050BC0010226B496B48012DC3F89C206A4AC3F837
:1050CC00A0206A4AC3F89C20694AC3F8A010C3F810
:1050DC009C20C3F8A0106749C3F89C00C3F8A0102B
:1050EC004FF01401644AC3F89C106449C3F8A01033
:1050FC004FF01501C3F89C106149C3F8A020C3F808
:10510C009C1001F50011C3F8A02001F101015D4ACA
:10511C00C3F89C105C49C3F8A010A1F10201C3F8BC
:10512C009C205A4AC3F8A010C3F89C20584AC3F8D4
:10513C00A02026D900242746013425FA04F3012B9C
:10514C00F9D8F4B1B6FBF5F305FB1363002B74D15E
:10515C000123A340AB4204D08D224E494E4807F0A8
:10516C00A7FA042C6FD97B0026F01F024B4903F0E1
:10517C003E03384842F01A021943C0F89C20C0F88C
:10518C00A0103449464C4748474A484BC1F89C400C
:10519C00C1F8A000C1F89C20C1F8A030BFF35F8F0C
:1051AC000523C1F894304B6A43F480334B62BFF350
:1051BC004F8FBFF36F8F4B6913F4803324D1C1F839
:1051CC008430BFF34F8FD1F8805043F6E076C5F3AF
:1051DC004E34C5F3C905640104EA06002B4640EAC7
:1051EC008372013BC1F860225A1CF8D1203C14F1A7
:1051FC00200FF1D1BFF34F8F4B6943F480334B61D8
:10520C00BFF34F8FBFF36F8F124A536913F4003300
:10521C0011D1BFF34F8FBFF36F8FC2F85032BFF372
:10522C004F8FBFF36F8F536943F400335361BFF358
:10523C004F8FBFF36F8F05B0F0BD8C2215491C4802
:10524C0007F036FA84E78E2212491A4807F030FA32
:10525C0089E700BF00ED00E00000E0810000008263
:10526C0039001003130000603F0000101100008093
:10527C00120000602D000306210003033B00100305
:10528C0016000020180028202500030319000080B8
:10529C00310003039CDE006010DF00600100080396
:1052AC001B0000402B0010031C00004227001003C1
:1052BC00F8DE00602CDF006038B5BE4A4FF40040C9
:1052CC00BD4B10600020D3F8C022BC4942F48032A0
:1052DC00BB4CC3F8C022D3F8C02222F40032C3F86E
:1052EC00C0220C6001F014FE01F044FE012001F01C
:1052FC0035FEB44A136823F0FF0343F07F031360B9
:10530C00936923F4405343F480539361536943F0FE
:10531C0000735361936C9D06FCD4AB4AD36823F0A5
:10532C001F0343F01303D3601368002BFCDAA54A68
:10533C00536923F4E0535361936C9C07FCD4A14A4A
:10534C0002F16C0353E8003F23F4403302F16C008C
:10535C0040E800310029F3D19A4A02F16C0353E87A
:10536C00003F23F4407302F16C0040E80031002947
:10537C00F3D1944A02F1700353E8003F23F4400345
:10538C0002F1700040E800310029F3D18D4A02F19E
:10539C00700353E8003F23F0407302F1700040E8C3
:1053AC0000310029F3D1874A02F1700353E8003F22
:1053BC0023F4404302F1700040E800310029F3D19E
:1053CC005369804943F440735361136923F0070315
:1053DC0043F0010313618B6CD803FCD44B69794AFD
:1053EC0023F060534B6102F16C0353E8003F23F44C
:1053FC00401302F16C0040E800310029F3D1714AEE
:10540C0002F16C0353E8003F23F4400302F16C00FB
:10541C0040E800310029F3D16A4A02F1680353E8ED
:10542C00003F23F0407302F1680040E8003100298E
:10543C00F3D1644A02F1680353E8003F23F0406360
:10544C0002F1680040E800310029F3D15D4A02F115
:10545C006C0353E8003F23F4405302F16C0040E826
:10546C0000310029F3D1D369564923F03F0343F0AF
:10547C000103D36101F1800353E8003F23F00C03D7
:10548C0001F1800040E80032002AF3D14B6A4D4A0A
:10549C0023F4605343F400634B62CB6923F48033F1
:1054AC00CB6102F1800353E8003F23F0300302F19B
:1054BC00800040E800310029F3D1536A414923F4BC
:1054CC00E02343F480335362D36923F40033D36174
:1054DC0001F1840353E8003F23F00C0301F1840035
:1054EC0040E80032002AF3D18B69364A23F060433E
:1054FC0043F000538B618B6923F4407343F4807346
:10550C008B6102F1700353E8003F23F00C0302F1AE
:10551C00700040E800310029F3D1D36B294923F402
:10552C00605343F40063D363D36B23F4C063D3633E
:10553C0001F16C0353E8003F23F0030301F16C000D
:10554C0040E80032002AF3D11E4A02F16C0353E802
:10555C00003F23F00C0302F16C0040E800310029FD
:10556C00F3D1184A02F16C0353E8003F23F03003E7
:10557C0002F16C0040E800310029F3D1114A02F12C
:10558C006C0353E8003F23F0C00302F16C0040E8C9
:10559C0000310029F3D193690A4923F0E05343F019
:1055AC0080539361936923F0300343F0200393619C
:1055BC000CE000BFCC07002000800D40D00700207D
:1055CC0000366E0100C00F400000084001F1680376
:1055DC0053E8003F23F4400301F1680040E8003237
:1055EC00002AF3D14B6AC74A43F0C0634B628B6904
:1055FC0023F440438B6102F17C0353E8003F23F416
:10560C00402302F17C0040E800310029F3D1936A79
:10561C00BC4923F4E07343F0C0039362936A23F014
:10562C003F0343F001039362D36923F44063D361D6
:10563C0001F17C0353E8003F23F4401301F17C009B
:10564C0040E80032002AF3D1CB6AAE4A23F4E0736F
:10565C0043F0C003CB62CB6A23F03F0343F001035A
:10566C00CB62CB6923F44053CB6102F17C0353E84A
:10567C00003F23F4400302F17C0040E80031002994
:10568C00F3D1936A9F4923F0E07343F44003936290
:10569C00936A23F47C1343F480339362D36923F429
:1056AC004043D36101F1700353E8003F23F0C00382
:1056BC0001F1700040E80032002AF3D1914A02F166
:1056CC00700353E8003F23F4407302F1700040E88C
:1056DC0000310029F3D18B4A02F1700353E8003FEB
:1056EC0023F4406302F1700040E800310029F3D14B
:1056FC00936B844923F0FC739363936B23F48023A3
:10570C00936301F1680353E8003F23F4404301F134
:10571C00680040E80032002AF3D17A4A02F16803AB
:10572C0053E8003F23F4402302F1680040E80031C5
:10573C000029F3D1734A02F1840353E8003F23F0AC
:10574C00C00302F1840040E800310029F3D16D4A16
:10575C0002F1680353E8003F23F4403302F1680080
:10576C0040E800310029F3D1664A02F1680353E89E
:10577C00003F23F4401302F1680040E80031002997
:10578C00F3D1604A02F1840353E8003F23F44073E1
:10579C0002F1840040E800310029F3D1136A594921
:1057AC0023F0FC0343F004031362136A23F44073E5
:1057BC0043F40073136201F17C0353E8003F23F0C0
:1057CC00407301F17C0040E80032002AF3D14D4ACD
:1057DC0002F1680353E8003F23F0405302F16800E4
:1057EC0040E800310029F3D1464A02F1680353E83E
:1057FC00003F23F4405302F1680040E800310029D7
:10580C00F3D1404A02F16C0353E8003F23F040739C
:10581C0002F16C0040E800310029F3D1394A02F161
:10582C00740353E8003F23F00C0302F1740040E8CA
:10583C0000310029F3D1334A02F1740353E8003FDD
:10584C0023F0C00302F1740040E800310029F3D1C9
:10585C002C4A02F17C0353E8003F23F0406302F131
:10586C007C0040E800310029F3D1264A02F1800384
:10587C0053E8003F23F4404302F1800040E800313C
:10588C000029F3D1536A1F4923F03F035362536A33
:10589C0023F04003536201F1740353E8003F23F4F7
:1058AC00406301F1740040E80032002AF3D18B6BA5
:1058BC00144A23F4E04343F480538B638B6923F045
:1058CC00607343F0C0738B618B6B23F4603343F4D0
:1058DC0020338B6302F17C0353E8003F23F44043F5
:1058EC0002F17C0040E800310029F3D1136B05492B
:1058FC0023F0606343F000731363136B43F0E073A6
:10590C00136301E000C00F40136B43F440131363A7
:10591C0001F17C0353E8003F23F00C0301F17C0000
:10592C0040E80032002AF3D10B6B804A23F4E043A9
:10593C0043F480530B630B6B43F460630B630B6B8F
:10594C0043F4C0730B6302F1740353E8003F23F07C
:10595C00030302F1740141E80035002DF3D1936A81
:10596C00734823F46063734C43F400739362936A3B
:10597C0043F060639362136A43F4C0131362D368F9
:10598C0023F00103D36001F0FFFA01F061FB4FF447
:10599C008033012268496367D4F8703123F40043E3
:1059AC00C4F87031D4F8703123F40003C4F87031AA
:1059BC00236F43F400532367D4F8A03023F400532F
:1059CC00C4F8A030D4F8A03023F4E03343F480338F
:1059DC00C4F8A030C4F8B050C4F8C020D4F8A0006B
:1059EC00564BD4F87021014042F040420B43C4F8AE
:1059FC007021C4F8A030D4F8A030002BFBDA4FF49F
:105A0C008035C4F8A85001F02BFBC4F8E450D4F84E
:105A1C00E03023F0030343F00103C4F8E030D4F882
:105A2C00E03043F40053C4F8E030D4F8E03023F015
:105A3C000C03C4F8E030D4F8E03043F48013C4F81D
:105A4C00E030D4F8E03043F40013C4F8E03001F057
:105A5C00F9FA6562226A354B42F4005222629A6965
:105A6C0042F440229A615A6922F000725A619A6C8F
:105A7C009206FCD499692F4821F44051304A314C9C
:105A8C009961D96921F04001D961D0F8601121F0F8
:105A9C001F01C0F86011196E2B4821F070011966B6
:105AAC00196E21F00F0141F001011966196E21F4F4
:105ABC0060011966196E21F4F81141F49011196600
:105ACC00196E21F480711966196E21F08001196626
:105ADC00196E21F08071196653681C4923F0070375
:105AEC005360536823F038035360536823F0C003AA
:105AFC005360536823F440735360536823F440633A
:105B0C00536093681C409460536823F400335360D3
:105B1C00536823F480235360536923F080535361FB
:105B2C00536923F000535361016038BD00C00F402E
:105B3C0048DF006000800D4080CFFFFF1F20080071
:105B4C0000C00A40FFFF00FBC40200200046C32334
:105B5C000146012000F012BE00F034BE38B501221F
:105B6C00044D0C462846114605F0C6FF0120256061
:105B7C0038BD00BFE802002008B505F0C3FF0120C6
:105B8C0008BD00BF4FF0FF3108B506F095F90120B4
:105B9C0008BD00BF06F0D8B838B5344C2278910750
:105BAC0009D440B9324B1D6875B1324B93F824308F
:105BBC002BB3D30701D4104638BD2E4D284604F024
:105BCC00C3FE68BB2278F6E701221A6000F0C4F825
:105BDC001821284601F092FB274B4FF42F722946CF
:105BEC00586A20F460505862D86940F48030D8610B
:105BFC00204806F085FE237843F001032370002330
:105C0C0005221C48194600F097F91A4804F03CFE8E
:105C1C000021184804F06CFE2278D307CBD5CCE7D2
:105C2C00284604F0BDFE2846012104F061FE2846FA
:105C3C0004F01CF968B1284604F0E8FD4FF42F720B
:105C4C000021284606F05CFE227842F00102227008
:105C5C00B1E7A96A094806F0EFFC23784FF4FA7013
:105C6C0023F00103237005F0E9FEABE7B802002036
:105C7C00E4020020F802002000C00F4050DF00605A
:105C8C0008B10120704710B5074C0848237843F041
:105C9C000203237004F058FE08B9207810BD207858
:105CAC0000F0FD00207010BDB8020020F8020020AA
:105CBC0058B908480078C00709D4074808B503F05C
:105CCC002FFE003818BF012008BD012070470320AB
:105CDC00704700BFB8020020F802002058B90848ED
:105CEC000078C00709D4074808B503F053FF003803
:105CFC0018BF012008BD012070470320704700BF6A
:105D0C00B8020020F802002058B952B10E4B187896
:105D1C0010F0010016D1032903D8DFE801F00309C4
:105D2C000E0404207047094B93F8853213607047BA
:105D3C00064BD3F8AC3213607047044BD3F8B03237
:105D4C001380704703207047B8020020F80200202F
:105D5C000020704702F05CBD1E4910B401F17803BD
:105D6C0053E8003F43F00C0301F1780040E80032A7
:105D7C00002AF3D1184B052006241849C3F8080152
:105D8C00C3F8AC01C3F8B44141F2B004C3F8BC2170
:105D9C001348C3F8C021C3F8C421C3F8C821C3F801
:105DAC00CC21C3F8D0210F4AC3F8F842C3F89C1396
:105DBC005DF8044BC3F8A403C3F8AC13C3F8B023C9
:105DCC00C3F8B413C3F8B813C3F8BC13C3F8C013A7
:105DDC00704700BF00C00F4000801F408970010059
:105DEC00A1700100894001000F4B984210B418D9E2
:105DFC000E4B0F4C98420F4B0F49104A9CBF21463B
:105E0C001A460F4B5DF8044BC3F8AC23C3F8B01320
:105E1C00C3F8B423C3F8B823C3F8BC23C3F8C02316
:105E2C0070470849084AECE780F0FA0200E1F505F2
:105E3C00B9000100B9700100F9000100F97001000E
:105E4C0000801F40390001003970010000B583B09B
:105E5C0008480DF1070100F0E1FE38B99DF8070084
:105E6C00B0FA80F0400903B05DF804FB002003B0E9
:105E7C005DF804FBC405002030B50C4D83B0AC6854
:105E8C0094B10DF107010A4800F0C8FE30B10020B2
:105E9C006969234603B0BDE8304018479DF80700F8
:105EAC00B0FA80F04009F3E703B030BD5C06002087
:105EBC00C405002018B10021034800F0E1BE012107
:105ECC00014800F0DDBE00BFB4050020154B642274
:105EDC0070B55A600026144A82B098600446DA60A5
:105EEC000D46596101A91E70104B11481B68019396
:105EFC0000F000FE04210E4800F00CFF0D49324664
:105F0C000B4800F0EFFE0DF10301094800F086FE8E
:105F1C0030B99DF803301BB914B129460120A047B4
:105F2C0002B070BD5C060020595E0060D4DF0060DA
:105F3C00C4050020855E00602DE9F0410F4682B05B
:105F4C0004461546984600283BD0214E2D01214B86
:105F5C002148EDB2F36220233363012386F88030AD
:105F6C001E4B2660336001F035F81821002001F03B
:105F7C00C5F91B491B4B4A6A5B6822F460521A48EC
:105F8C0042F400624A62CA6942F48032CA6101A9D1
:105F9C000193164B7360164BA361164B6360164B43
:105FAC002361164B6361164BE36100F0A3FD414680
:105FBC003846FFF78BFF134B83F86E5302B0BDE8E6
:105FCC00F081E3221049114806F072FBBDE700BFD7
:105FDC00D40500200000E08134DF006000002C407C
:105FEC0000C00F40D4DF0060B4050020803DCD0B15
:105FFC005C060020C15E0060F55D0060BC02002004
:10600C0000E1F50500E100E068DF0060CCDF006036
:10601C00124A10B402F1780353E8003F43F00C032A
:10602C0002F1780141E800300028F3D10C4B022436
:10603C0041F2B001C3F8EC40C3F8F040C3F8DC12F5
:10604C00C3F8E012536A5DF8044B23F0400353622B
:10605C00536A23F03F035362704700BF00C00F40E8
:10606C0000801F4014207047142070471420704784
:10607C00704700BF164B0021164A1B6810B5164C12
:10608C0082B02170190CADF804308DF8061002F1B5
:10609C00780353E8003F43F00C0302F1780040E82A
:1060AC0000310029F3D10D4B05220D48C3F8DC203B
:1060BC0041F2B002C3F8CC2201AA036843F4807306
:1060CC0003602170082101F091F902B010BD00BFEE
:1060DC00DCDF006000C00F407406002000801F4011
:1060EC0000801B4038B9044A01200449136823F48A
:1060FC00807313600870704700801B40740600208A
:10610C0030B9044A0449136843F48073136008706F
:10611C00704700BF00801B4074060020704700BF12
:10612C0010B5EFF3108472B604F03EFC05F014FACF
:10613C00FFF79EFFFFF79EFF00F008F8FFF7EEFF5A
:10614C0000F098FA84F3108810BD00BF704700BFB0
:10615C0070B528B304460D4601266C22002106F0CA
:10616C00CFFBA5702046667004F0D4FD054608B13F
:10617C00284670BD3246314604F1080005F0BCFCDF
:10618C003246314604F1180005F0B6FC04F1280043
:10619C006FF00042294605F0AFFC2846267070BD12
:1061AC000225284670BD00BF002A18BF002B2DE920
:1061BC00F04108D0044630B115461E46028840F224
:1061CC0001139A4203D003242046BDE8F08100F16C
:1061DC0008080F464FF0FF31404605F06DFE47B101
:1061EC00012F0FD00324404605F0AEFD2046BDE83C
:1061FC00F08133460122294604F1400000F076FB81
:10620C000024F0E733463A46294604F1500000F0EA
:10621C006DFBF5E768B140F2011370B502880446D6
:10622C009A4201D0032070BDC378012B03D01620F5
:10623C0070BD0320704700F108054FF0FF3100F1ED
:10624C002806284605F038FE04F1400000F058FB03
:10625C00304605F057FC6FF000420021304605F047
:10626C004BFC284605F070FD002070BD2DE9F04177
:10627C0038B10D4629B1028840F2011304469A4206
:10628C0003D003252846BDE8F081C67886BB036C95
:10629C0093B3036D93B300F108084FF0FF3100F195
:1062AC002807404605F008FE04F1400000F028FBEA
:1062BC0004F1500000F024FB384605F023FC314675
:1062CC0038466FF0004205F017FC04F1380395E8EE
:1062DC00030083E80300204604F072FD054608B96C
:1062EC000123E370404605F02FFD2846BDE8F08100
:1062FC0017252846BDE8F0811825C3E71925C1E705
:10630C00002918BF002A46D02DE9F041044658B1A7
:10631C000D4640F201130188994205D1C378012B37
:10632C0005D01620BDE8F0810320BDE8F08100F116
:10633C00180800F150074FF0FF31AE18404605F039
:10634C00BBFD05E00135204604F0BCFDB54224D070
:10635C002946384600F0E8FA0028F3D0384600F019
:10636C00D9FA034620468BB12946384600F0DCFAB0
:10637C00E8E7204604F0A6FD012005F05FFB384657
:10638C0000F0C8FA03462046002BEDD104F0BCFD0A
:10639C000128F1D1EDE703207047404605F0D4FC0D
:1063AC000020C2E72DE9F84340B10F4631B1164643
:1063BC0040F20113028804469A4203D00325284672
:1063CC00BDE8F883C378012B03D016252846BDE819
:1063DC00F88300F1080800F140094FF0FF31404606
:1063EC0005F06AFD3946484600F0C4FA0A2805460D
:1063FC0018D068B11F280FD0314604F1280005F0E1
:10640C005BFDA8B1404605F09FFC2846BDE8F8832B
:10641C002579002D18BF1F25012104F1280005F056
:10642C004BFDEFE72379002B0CBF1E252025E3E75E
:10643C003946484600F09EFA0A28054606D0002840
:10644C00E0D12579002D18BF1F25DBE72379002B20
:10645C0014BF20251E25D5E700B583B02BB10090C5
:10646C00044806F0E9F800BFFDE70346024806F0D1
:10647C00E3F8F8E7E0DF006004E000602DE9F041AC
:10648C0000EB8003344E05464FEA800C06EB830389
:10649C005C68EFF3108E72B6002C45D001F10F033F
:1064AC00626823F00F0303F110018A4246D02033B7
:1064BC009A4212D82268002A36D0274605E0834239
:1064CC0040D310681746024670B350688842F6D124
:1064DC001368A04614463B6007E0521A236804EB8D
:1064EC0001086350C8F804202246002302F1100072
:1064FC0010326160236016D00CEB0502AC4406EB45
:10650C00820206EB8C06D368C6F804801944136922
:10651C009942124BD160C8BF1161C4E902538EF38A
:10652C001088BDE8F0814446AC44002006EB8C0C8E
:10653C00CCF804408EF31088BDE8F081D4F80080CC
:10654C002246D2E71368401AA046144653505318FB
:10655C0058603B60C9E700BF78060020CCDDEEFF39
:10656C00EFF3108172B6002843D03F4BA0F110021C
:10657C002DE9F04750F8044C9C4236D194680F2C0E
:10658C0033D83A4B4FEA840C394DD36004EB840377
:10659C00576805EB8303DE68F61BDE605E68EEB1C0
:1065AC0002EB0708B146B04526D017D333685BB36E
:1065BC009A4229D99E461B680BB19A42FAD8F146E9
:1065CC0023B3DEF804A0D1444A452AD098452FD0F5
:1065DC0040F8103CCEF80020324601E040F8106C38
:1065EC000CEB040305EB83056A6081F31088BDE8AE
:1065FC00F08781F310887047D8F80430D6593B44A3
:10660C0040F8106C5360EBE7B646D9E7DEF804802F
:10661C00C1444A4518D0CEF80020324640F8103C10
:10662C00DEE7984515D057443246CEE90037D7E718
:10663C00D8F80430CEF800203B44D8F8007040F86D
:10664C00107C53603246CBE747443246CEE90037E4
:10665C00C6E7D8F80430D8F8002053443B44CEE9C0
:10666C0000233246BCE700BFCCDDEEFF56341200EF
:10667C007806002038B54FF4A0720021174806F0B8
:10668C003FF9174A174B9B1A5C1C0BD1134C164D38
:10669C000023012215482560E3601146BDE838400F
:1066AC0005F02ABA100702F00F0106D0202BEDD905
:1066BC001032A1F11000521A0344202BE6D923F01A
:1066CC000F030021054C0A48A360D06002F11000B2
:1066DC009160C2E90013FFF743FFD8E7780600206A
:1066EC0000000080FFFFDF811CE00060B807002085
:1066FC00CCDDEEFF0F280ED82DE9F04104461D4DE0
:10670C0000EB800082B0A60005EB8000406818B159
:10671C0002B0BDE8F0817047170702F00F0005D0FA
:10672C00202B05D91032103B121A0344202B06D80B
:10673C0026440022B600AB19A951DA60E8E706EB53
:10674C00040C23F00F03DFF830E04FF0000805EBEA
:10675C008C0C02F110000191DCF808701F44CCF88D
:10676C000870C2E90083C2E9024EFFF7F9FE0199F5
:10677C00DEE700BF78060020CCDDEEFF0F2838B531
:10678C0018D80E4B00EB8002044603EB82039B6887
:10679C0083B10D4671B14FF0FF31094805F08CFB08
:1067AC0029462046FFF76AFE0446054805F0CCFA58
:1067BC00204638BD0024204638BD00BF7806002096
:1067CC00B8070020002850D04FF0FF312DE9F047DA
:1067DC000446424805F070FBEFF3108172B6404A54
:1067EC00A4F1100354F8040C904237D198680F2888
:1067FC0034D83C4A4FEA800C3B4DDA6000EB800207
:10680C005F6805EB8202D668F61BD6605668F6B157
:10681C0003EB0708B146B04528D018D33268002ADC
:10682C004AD0934248D9964612680AB19342FAD894
:10683C00F1461AB3DEF804A0D1444B4529D090455B
:10684C002ED044F8102CCEF80030334601E044F83A
:10685C00106C0CEB000205EB82056B6081F3108869
:10686C001E48BDE8F04705F06FBA7047D8F8042011
:10687C00DE593A4444F8106C5A60EAE7DEF80480BA
:10688C00C1444B451AD0CEF80030334644F8102C96
:10689C00DFE7904517D057443346CEE90027D8E7B9
:1068AC00D8F80420CEF800303A44D8F8007044F8F8
:1068BC00107C5A603346CCE7B646BAE747443346B9
:1068CC00CEE90027C5E7D8F80430D8F800205344A7
:1068DC003B44CEE900233346BBE700BFB80700209A
:1068EC00CCDDEEFF563412007806002010B40024E4
:1068FC000160828084608481C3805DF8044B7047A2
:10690C00EFF3108272B600238360838182F31088C8
:10691C00704700BFEFF3108272B6C3888189581A92
:10692C0080B282F31088704738B5EFF3108572B6D9
:10693C008389C2889A4219D00133828804468381A4
:10694C000389006813FB02F310FA83F005F0A2FF31
:10695C002389E28801339BB29A42238103D0002021
:10696C0085F3108838BD00232381F8E70B2085F3CD
:10697C00108838BD38B5EFF3108572B683891BB912
:10698C000A2085F3108838BD0446013B82880846EE
:10699C00A3816389216813FB02F311FA83F105F0DB
:1069AC0079FF6389E28801339BB29A42638101D1FA
:1069BC0000236381002085F3108838BDF0B51B4B94
:1069CC008DB01B4D06461C680CAB0DF1040C03EB93
:1069DC0080070FCDACE80F000FCDACE80F0095E8A9
:1069EC0007008CE8070057F82C3C9D699D61DCB1D1
:1069FC00012701E02468BCB1637B13F01C0FF9D0B4
:106A0C00237B03F00F03B342F4D1A389C3F3041324
:106A1C0007FA03F32B42EDD06368002BEAD0A06891
:106A2C0098472468002CE7D10DB0F0BDC8070020B2
:106A3C00C4E00060012008B5FFF7C0FFBFF34F8F23
:106A4C0008BD00BF012008B5FFF7B8FFBFF34F8F9B
:106A5C0008BD00BF022008B5FFF7B0FFBFF34F8F92
:106A6C0008BD00BF022008B5FFF7A8FFBFF34F8F8A
:106A7C0008BD00BF032008B5FFF7A0FFBFF34F8F81
:106A8C0008BD00BF032008B5FFF798FFBFF34F8F79
:106A9C0008BD00BF042008B5FFF790FFBFF34F8F70
:106AAC0008BD00BF042008B5FFF788FFBFF34F8F68
:106ABC0008BD00BF052008B5FFF780FFBFF34F8F5F
:106ACC0008BD00BF052008B5FFF778FFBFF34F8F57
:106ADC0008BD00BF08B50620FFF770FF0720FFF7C1
:106AEC006DFF0820FFF76AFF0920FFF767FFBFF370
:106AFC004F8F08BDF0B500238DB0434D0F4601AC50
:106B0C000646ADF800308DF802300FCD0FC40FCD16
:106B1C000FC495E8070084E80700002E5CD0002F16
:106B2C0062D0B9780CAB03EB810353F82C3C002BEF
:106B3C0065D0364B1C68002C46D0F878234601E013
:106B4C001B686BB11A7B02F00F029142F8D19A8943
:106B5C00C2F304128242F3D142F647700DB0F0BD7D
:106B6C00EFF3108272B601E09E4232D023462468C5
:106B7C00002CF9D11E600025356082F31088F9785D
:106B8C00BB783C7801F01F01B08903F00F0304F0CF
:106B9C00010C012C20F4FF5043EA011220F01F00DD
:106BAC0042EA4C2242EA0002B28124D02C460CAAC2
:106BBC008DF8004002EB83036A4653F82C0C00F06E
:106BCC0015FC00200DB0F0BDEFF3108272B61E6004
:106BDC00D1E782F31088BFE74FF48C720C490D4853
:106BEC0005F066FD002F9CD140F2191208490A48A5
:106BFC0005F05EFD95E77A788DF80120D7E742F62F
:106C0C0045700DB0F0BD00BFC4E00060C8070020A7
:106C1C0024E00060A4E00060B0E0006070B5154CAA
:106C2C008CB00D4606460DF1040C0FCCACE80F00F1
:106C3C000FCCACE80F0094E807008CE8070096B185
:106C4C00337B0CA9B289002003F00F03C2F30412AA
:106C5C0001EB830353F82C3C1B68D34003F0010376
:106C6C002B700CB070BD4FF4AD720349034805F0A6
:106C7C001FFDE5E7C4E0006024E00060A4E00060D4
:106C8C0070B5154C8CB00E4605460DF1040C0FCCAE
:106C9C00ACE80F000FCCACE80F0094E807008CE8D0
:106CAC00070095B12B7B0CA8A989321E03F00F03AA
:106CBC0018BF0122C1F3041100EB830353F82C0C11
:106CCC0000F036FB00200CB070BD40F26712034997
:106CDC00034805F0EDFCE5E7C4E0006024E000604B
:106CEC00A4E0006070B50D460446164618B10020AD
:106CFC00C4E9015670BD40F275120449044805F010
:106D0C00D7FC0020C4E9015670BD00BF24E0006030
:106D1C00A4E000602DE9F043564C99B08946064634
:106D2C000DF1340C01AD0DF11C0E0FCCACE80F00C5
:106D3C000FCCACE80F0004F10C0804F1240794E824
:106D4C0007008CE80700B8E80F000FC598E80300AF
:106D5C0045F8040B29800FCFAEE80F0097E803002D
:106D6C004EF8040BAEF80010002E74D0727B12F0AB
:106D7C0002045BD109F1FF33DBB2042B53D9737BD3
:106D8C0069F384037373EFF3108572B6337B18AA1F
:106D9C00B18903F00F03C1F3041102EB8303224604
:106DAC0053F82C0C00F0DEFA337BACB918AA03F0C4
:106DBC000F03B18902EB83030122C1F3041153F8D1
:106DCC002C0C8A40436923EA0203436185F3108843
:106DDC00002019B0BDE8F08303F00F0318A9B289A5
:106DEC00012001EB8301C2F3041251F82C4C00FA80
:106DFC0002F10F2A666918AA41EA060102EB430365
:106E0C00616118D833F95C3C002B2BDB1A4A302417
:106E1C00D11881F80043590903F01F0300FA03F35A
:106E2C0042F82130D2E7154AD45CA8E742F6457007
:106E3C0019B0BDE8F08333F9443C002B12DB0E4A49
:106E4C003024D11881F80043590903F01F039840EE
:106E5C0042F82100BAE740F299120949094805F0B5
:106E6C0027FC83E703F00F03074A30211A441176FD
:106E7C00ACE700BFC4E0006000E100E0BCE00060F3
:106E8C0024E00060A4E00060FCEC00E0002910DDD0
:106E9C0000F01F020A44BFF34F8F06490244C1F8A9
:106EAC005C022030131A002BF9DCBFF34F8FBFF3B9
:106EBC006F8F704700ED00E0002910DD00F01F021D
:106ECC000A44BFF34F8F06490244C1F868022030D0
:106EDC00131A002BF9DCBFF34F8FBFF36F8F704782
:106EEC0000ED00E0002910DD00F01F020A44BFF3A2
:106EFC004F8F06490244C1F870022030131A002B40
:106F0C00F9DCBFF34F8FBFF36F8F704700ED00E0DC
:106F1C0008B5B0B90E4A4FF08043C2F85831D2F8D8
:106F2C007032D903FBD54FF480330949C2F8543180
:106F3C00D1F850311B04FBD54FF48033C1F85831D4
:106F4C0008BDC1220349044805F0B2FBE2E700BFCB
:106F5C0000800D4020E1006090E10060044B1022A5
:106F6C0010B9C3F874227047C3F87822704700BF79
:106F7C0000800D40034AD2F8703243F00103C2F88E
:106F8C007032704700800D40104A037910499B0302
:106F9C0010B414689BB224F4E03C43EA0C0343F4B1
:106FAC008033136014680368214003F07F030B43A4
:106FBC0043F4005313601368002BFCDA13685DF87C
:106FCC00044B23F480331360704700BF00800D40E6
:106FDC0080CFFFFF10B4194B027B196B9203184C36
:106FEC0021F4E03192B20A4342F480321A631A6BF4
:106FFC0001781440428A01F00101C2F30E022143D0
:10700C0041F400511963416821F0404119658168D0
:10701C0021F040411966017CC089C90342EA004253
:10702C0089B20A431A641A6B002AFCDA1A6B5DF8EF
:10703C00044B22F480321A63704700BF00800D406D
:10704C00FECFFFFF014B00221A62704700800D40FB
:10705C00024B4FF480521A67704700BF00800D40FE
:10706C00024B4FF48052C3F8E020704700800D4073
:10707C00954BC0F30B4200F01F0110B5D458CC4017
:10708C0014F0010432D0D15811F4404F30D0002408
:10709C00D35813F4803329D18C4A904200F0B2803B
:1070AC003DD8A2F5A002904200F0EE8027D9884A84
:1070BC00904251D1844B07EE904A93ED146AB8EE8E
:1070CC00677B93ED185AB8EE466B1B6BB8EE455BBD
:1070DC00DB0727EE067B87EE056B3FD404EB8403BE
:1070EC009B00BCEEC66B16EE104A1C44204610BD2D
:1070FC00D3F87012C9062DD476490C68C8E70D2850
:10710C0030D0A2F58012904226D16F4B1B6913F040
:10711C00020F0CBF1423162303FB04F4E6E76E4A9C
:10712C00904227D006D96D4B6D4C984218BF002465
:10713C00204610BD6B4A904225D002F58002904249
:10714C000AD1614B684AD3F8E03003F0030352F8DC
:10715C002340CBE7654C9BE71C46C7E7162304FB93
:10716C0003F3BEE7584B1B6803F07F0304FB03F3E8
:10717C005C08BBE7544B5C4AD3F8E030C3F38103A3
:10718C0052F82340B2E7504B07EE904AD3F8A020B8
:10719C00B8EE675B93ED2C7A93ED306A02F07F02C8
:1071AC00B8EE477BD3F8A030B8EE466B03F4C013AF
:1071BC0025EE075BB3F5002F85EE067BBCEEC77B97
:1071CC0017EE101A04FB02147AD0B3F5801F07D007
:1071DC00002B77D04FF48B624549464805F068FA8E
:1071EC00394BD3F8703103F04043B3F1004F3FF407
:1071FC007DAF57D8002B3FF479AFB3F1804F54D10A
:10720C00640873E7304B07EE904A1A6FB8EE675B71
:10721C0093ED207A93ED246A02F07F02B8EE477B5F
:10722C001B6FB8EE466B03F4C01325EE075BB3F58A
:10723C00002F85EE067BBCEEC77B17EE101A04FB05
:10724C00021439D0B3F5801F07D0002B36D040F292
:10725C0017422749274805F02BFA1B4B264AD3F82F
:10726C0070311340B3F5000F3FF440AF16D8002B2C
:10727C003FF43CAFB3F5004FC2D040F22B421C4957
:10728C001C4805F015FA31E70F4B1B6A13F0020F7F
:10729C000CBF1423162303FB04F427E79342ECD111
:1072AC00A40823E7B3F1404FFAD040F26C421049E6
:1072BC00104805F0FDF919E76408CEE7A408CCE7FF
:1072CC0064088DE7A4088BE700800D400D0070006A
:1072DC000D003000D00700201400E0001500E00085
:1072EC0040787D010D00A000A8E1006000366E0121
:1072FC0020E10060A0E100600080800010B4C000BC
:10730C000A4CBF2301F03F01D4F800218340814097
:10731C0022EA03028023834011431343C4F8003153
:10732C00C4F800115DF8044B704700BF00800D409D
:10733C001F2970B50C460546164608D80123A340F4
:10734C0016B9C5F8883070BDC5F8843070BD75228B
:10735C000249034805F0ACF9F0E700BFB8E1006062
:10736C0028E2006001230F2910B403FA01F3C46969
:10737C0024EA0304C46116D800F10C04013A042A6F
:10738C000ED8DFE802F01A03242914004900032068
:10739C002368012288408A4023EA000313432360B8
:1073AC005DF8044B704700F110041039E6E7C26930
:1073BC005DF8044B1343C3617047490003222368F3
:1073CC008A4023EA020323605DF8044B70474900AE
:1073DC00032023680222DDE74900032322688B4047
:1073EC00134323605DF8044B704700BF2DE9F04157
:1073FC000E460446174600285AD0434B984278D084
:10740C0003F58043984276D003F58043984274D0BC
:10741C0003F58043984272D0A3F58213984270D042
:10742C00B0F1844F12D0394B98420FD003F5804302
:10743C0098420BD003F58043984207D0344B9842C6
:10744C0004D03C223349344805F032F901256369F4
:10745C00B54023EA05036361EB433A784AB96268A5
:10746C003146204613406360BA78BDE8F041FFF71F
:10747C0079BF1F2E97F8018011D8B8F1000F0BD0EF
:10748C00C4F884506368314620461D436560BA7861
